:1000000012C02CC02BC02AC029C028C027C026C0BF
:1000100025C025C023C022C021C020C043C01EC0AF
:100020001DC01CC01BC011241FBECFE5D4E0DEBF25
:10003000CDBF12E0A0E6B0E0E6EAFCE002C0059029
:100040000D92AC35B107D9F712E0ACE5B2E001C0D2
:100050001D92A837B107E1F752D023C6D1CF1F9226
:100060000F920FB60F9211242F933F934F935F93EC
:100070006F937F938F939F93AF93BF93EF93FF9370
:10008000A4D0FF91EF91BF91AF919F918F917F91FC
:100090006F915F914F913F912F910F900FBE0F90F5
:1000A0001F9018951F920F920FB60F9211242F9345
:1000B0003F934F935F936F937F938F939F93AF93F0
:1000C000BF93EF93FF9335D2FF91EF91BF91AF9123
:1000D0009F918F917F916F915F914F913F912F9160
:1000E0000F900FBE0F901F9018951F920F920FB692
:1000F0000F9211240F900FBE0F901F9018958FE153
:1001000087BB80EE88BB8FEF81BB84E082BB85E03C
:1001100083BF81E089BF89E08EBD83EA8FBD1BBCB0
:100120001ABC19BC18BC8CE089B988E98AB981E489
:1001300087B98FE886B9E8E6F0E05D9BFECF819154
:100140008CB980E0EF37F807C1F782E05AD185E03B
:1001500058D178941BBC1ABC19BC18BC8FEF90E71F
:10016000A2E081509040A040E1F700C0000087B1BC
:10017000807F87B9AFE6B7E11197F1F700C00000C3
:10018000369A8FEB95E4A4E081509040A040E1F7CF
:1001900000C0000082E003D1882379F085E081D19E
:1001A00082E02FD173D0E4E6F0E05D9BFECF819139
:1001B0008CB990E0E736F907C1F785E0F0D08823E5
:1001C00001F3369A85E01DD1DCCF20916C0230918D
:1001D0006D028091510190E02817390769F482B3CC
:1001E0008695869580FD02C0929A01C092981092E1
:1001F0006D0210926C02089580916C0290916D02D4
:10020000019690936D0280936C02089510926202A1
:100210001092630240E0282F392FC90103C0885E85
:100220009340422F242F2F5F33E0883E9307BCF783
:10023000409361022091620203C084569040232FB4
:10024000322F3F5F84369105C4F7209362022091DC
:10025000630202C00A97232F322F3F5F8A30910535
:10026000CCF72093630280936402089529E08239D9
:10027000920734F48091500180935101939A08952C
:1002800080914F0180935101939808958091650268
:1002900090916602BBDF5D9BFECFE0916102F0E0D2
:1002A000E05CFE4F80818CB95D9BFECFE0916202E5
:1002B000F0E0E05CFE4F80818CB95D9BFECFE09169
:1002C0006302F0E0E05CFE4F80818CB95D9BFECF65
:1002D000E0916402F0E0E05CFE4F80818CB95D9BB0
:1002E000FECF80913E018CB95D9BFECF80913F0196
:1002F0008CB9609165027091660280E090E082D2D4
:1003000020E030E040EA55E439D120E030E040E838
:100310005AE334D128D2DC01CB0190936902809357
:10032000680274DF5D9BFECF80914A018CB95D9BB2
:10033000FECFE0916102F0E0E05CFE4F80818CB97D
:100340005D9BFECFE0916202F0E0E05CFE4F8081B9
:100350008CB95D9BFECFE0916302F0E0E05CFE4F64
:1003600080818CB95D9BFECFE0916402F0E0E05C9F
:10037000FE4F80818CB95D9BFECF80913E018CB990
:100380005D9BFECF80913F018CB980916802909176
:1003900069026CDF10926602109265020895803245
:1003A000D0F49FB7F894209170023091710240917F
:1003B00072025091730204C0569547953795279560
:1003C0008A95D2F72170307081E02115310509F44A
:1003D00080E09FBF08952FB7F894382F3052809156
:1003E000740290917502A0917602B091770204C0D8
:1003F000B695A795979587953A95D2F781702FBFB7
:100400000895803230F56FB7F89421E030E040E095
:1004100050E004C0220F331F441F551F8A95D2F7A6
:100420002095309540955095809170029091710281
:10043000A0917202B091730282239323A423B52367
:100440008093700290937102A0937202B093730232
:1004500026C06FB7F894805221E030E040E050E0D1
:1004600004C0220F331F441F551F8A95D2F72095D1
:100470003095409550958091740290917502A091AD
:100480007602B091770282239323A423B52380932D
:10049000740290937502A0937602B09377026FBFB7
:1004A0000895803210F56FB7F89421E030E040E015
:1004B00050E004C0220F331F441F551F8A95D2F706
:1004C0008091700290917102A0917202B0917302BA
:1004D000822B932BA42BB52B8093700290937102E7
:1004E000A0937202B093730222C06FB7F894805247
:1004F00021E030E040E050E004C0220F331F441FF1
:10050000551F8A95D2F78091740290917502A0913F
:100510007602B0917702822B932BA42BB52B80937C
:10052000740290937502A0937602B09377026FBF26
:100530000895409167024A3088F420916502309115
:10054000660284B195B1820F931F909366028093E7
:1005500065024F5F4093670285E00EC0109267020C
:1005600080916502909166026AE070E04FD37093CB
:1005700066026093650282E094DF0895A0E2B0E035
:10058000E3ECF2E057C369837A838B839C832D83EA
:100590003E834F835887CE010196BE01675F7F4F30
:1005A000CCD2CE010596BE016F5E7F4FC6D2998533
:1005B000923078F089898230C0F0943019F482301A
:1005C00041F4CBC0843019F4923079F4C6C0923033
:1005D00051F481E02A859A89291709F480E08A87F5
:1005E000CE010996BCC0823051F481E02A859A89F7
:1005F000291709F480E08A8BCE014196B0C06D8442
:100600007E848F849888ED88FE880F89188DE0E2BB
:10061000F0E080E090E0DC01AA24BB24650120E04A
:1006200030E0A901B3016170707061157105D1F0FE
:100630002E0D3F1D401F511F15012601280E391E8A
:100640004A1E5B1E81E090E0A0E0B0E02E153F0561
:100650004007510718F080E090E0DC01820D931D07
:10066000A41DB51DAA0CBB1CCC1CDD1C17FF09C0AA
:1006700061E0262E312C412C512CA228B328C4280D
:10068000D528319749F0EE0CFF1C001F111F9694DE
:10069000879477946794C6CF6B897C89EB85FC85BA
:1006A0006E0F7F1F6E5F7F4F7C8F6B8F61E0EA85DF
:1006B0007A89E71709F460E06A8F6B8D7C8D10C032
:1006C000FC01E170F070309729F056954795379509
:1006D00027955068B695A795979587956F5F7F4F3B
:1006E000B7FDEECF0CC0880F991FAA1FBB1F57FD87
:1006F0008160220F331F441F551F615070408030AE
:10070000E0E09E07E0E0AE07E0E4BE0760F36B8F39
:100710007C8F6FE7E62EF12C012D112DE822F922B6
:100720000A231B2360E4E616F1040105110561F4B8
:1007300087FD0AC0211531054105510529F0805C6E
:100740009F4FAF4FBF4F80788D8F9E8FAF8FB8A3D5
:1007500083E0898FCE01499602C084E591E020D1E3
:10076000A096E2E183C2ACE0B0E0E8EBF3E072C255
:1007700069837A838B839C83CE010196BE016B5F74
:100780007F4FDBD18D81823081F1823070F18430F6
:1007900021F48E81882369F10AC02F81388537FDC5
:1007A00024C06E812F3131053CF0662311F120E029
:1007B00030E040E050E821C08EE190E0821B930BD6
:1007C00029853A854B855C8504C0569547953795B4
:1007D00027958A95D2F7662381F0509540953095FC
:1007E00021953F4F4F4F5F4F08C020E030E0A901F7
:1007F00004C02FEF3FEF4FEF5FE7B901CA012C961E
:10080000E2E044C2A8E0B0E0E7E0F4E01DC27B0112
:100810008C011A82611571058105910519F482E038
:1008200089835EC083E089838EE1C82ED12CDC826F
:10083000CB82ED82FE820F831887C801B70156D0A4
:10084000FC013197F7FF3AC0AA27BB27AE1BBF0BAD
:1008500021E030E040E050E00A2E04C0220F331FB8
:10086000441F551F0A94D2F7215030404040504059
:100870002E213F214023512361E070E080E090E091
:10088000211531054105510519F460E070E0CB01F7
:1008900004C016950795F794E794AA95D2F7E62A2F
:1008A000F72A082B192BED82FE820F8318878EE121
:1008B00090E08E1B9F0B9C838B8312C0309781F03E
:1008C0000E2E04C0EE0CFF1C001F111F0A94D2F75D
:1008D000ED82FE820F831887CE1ADF0ADC82CB827C
:1008E000CE0101965DD02896E8E0CAC1AF92BF92D2
:1008F000CF92DF92EF92FF920F931F937B018C01B7
:1009000080E0E81680E0F80681E0080780E018073C
:1009100058F4EFEFEE16F1040105110509F090F41B
:1009200080E090E0DC0117C0F0E0EF16F0E0FF0699
:10093000F0E00F07F1E01F0750F480E190E0A0E045
:10094000B0E009C088E090E0A0E0B0E004C088E139
:1009500090E0A0E0B0E020E230E040E050E0281B72
:10096000390B4A0B5B0B5701680104C0D694C7943E
:10097000B794A7948A95D2F7D601C501845A9E4FA1
:10098000FC018081281B310941095109C9011F91CE
:100990000F91FF90EF90DF90CF90BF90AF900895B0
:1009A000EF92FF920F931F93CF93DF93FC0124816B
:1009B00035814681578161818081823020F4406198
:1009C000EFEFF0E0A3C0843009F49BC0823009F45B
:1009D00092C0211531054105510509F48FC00280EF
:1009E000F381E02D8FEFE238F8070CF05AC0C2E82F
:1009F000DFEFCE1BDF0BCA31D1056CF579018A011F
:100A00000C2E04C016950795F794E7940A94D2F734
:100A100081E090E0A0E0B0E00C2E04C0880F991FA8
:100A2000AA1FBB1F0A94D2F70197A109B10982231B
:100A30009323A423B52321E030E040E050E0009769
:100A4000A105B10519F420E030E0A9012E293F29C4
:100A5000402B512B03C020E030E0A901DA01C9018D
:100A60008F779070A070B07080349105A105B105AA
:100A700039F427FF09C0205C3F4F4F4F5F4F04C040
:100A8000215C3F4F4F4F5F4FE1E0F0E0203080E0CE
:100A9000380780E0480780E4580728F5E0E0F0E0F8
:100AA00022C0E038F1056CF5E158FF4FDA01C901C9
:100AB0008F779070A070B07080349105A105B1055A
:100AC00039F427FF09C0205C3F4F4F4F5F4F04C0F0
:100AD000215C3F4F4F4F5F4F57FF05C056954795DD
:100AE00037952795319687E0569547953795279501
:100AF0008A95D1F70BC0E0E0F0E005C0E0E0F0E05F
:100B000005C0EFEFF0E020E030E0A9018E2F8795DF
:100B100088278795942F9F77679566276795E69531
:100B2000E22EA92FA82BFE2FF62B622F732F8A2FD0
:100B30009F2FCDB7DEB7E6E0A5C0DC01FB012C910D
:100B400011963C91119712968C911297482F4F77DE
:100B500050E0982F991F9927991F13966C9113971E
:100B6000862F880F892B90E0661F6627661F61839A
:100B7000009739F5211531054105510511F482E041
:100B800029C082E89FEF9383828367E0220F331F9F
:100B9000441F551F6A95D1F783E0808309C0220F57
:100BA000331F441F551F8281938101979383828352
:100BB000203080E0380780E0480780E4580778F369
:100BC00020C08F3F910579F421153105410551056C
:100BD00019F484E08083089544FF03C081E080839A
:100BE00010C010820EC08F5790409383828383E0A1
:100BF000808387E0220F331F441F551F8A95D1F74A
:100C0000506424833583468357830895AA1BBB1BF6
:100C100051E107C0AA1FBB1FA617B70710F0A61BFC
:100C2000B70B881F991F5A95A9F780959095BC011D
:100C3000CD0108952F923F924F925F926F927F92D3
:100C40008F929F92AF92BF92CF92DF92EF92FF92DC
:100C50000F931F93CF93DF93CDB7DEB7CA1BDB0B88
:100C60000FB6F894DEBF0FBECDBF09942A8839882D
:100C700048885F846E847D848C849B84AA84B98434
:100C8000C884DF80EE80FD800C811B81AA81B98140
:100C9000CE0FD11D0FB6F894DEBF0FBECDBFED0154
:060CA0000895F894FFCF57
:100CA600540D0A00420D0A000D41746D65676138E6
:100CB600412055415254207265616479210D0A0024
:100CC60001410D0A00436F6D6D616E642030207224
:100CD6006563697665210D0A00436F6D6D616E640B
:100CE600203120726563697665210D0A00436F6DB8
:100CF6006D616E64203220726563697665210D0A26
:100D060000436F6D6D616E64203320726563697692
:100D160065210D0A00436F6D6D616E64203420728B
:100D26006563697665210D0A00436F6D6D616E64BA
:100D3600203520726563697665210D0A00436F6D63
:100D46006D616E64203620726563697665210D0AD1
:100D560000436F6D6D616E6420372072656369763E
:100D660065210D0A00556E6B6E6F776E20636F6D91
:100D76006D616E6420726563697665210D000D0AEA
:100D8600303132333435363738395602050A0014D5
:100D960007143000000000000000000000010202FD
:100DA60003030303040404040404040405050505FD
:100DB60005050505050505050505050506060606D9
:100DC60006060606060606060606060606060606BD
:100DD60006060606060606060606060607070707A9
:100DE600070707070707070707070707070707078D
:100DF600070707070707070707070707070707077D
:100E0600070707070707070707070707070707076C
:100E16000707070707070707070707070808080858
:100E2600080808080808080808080808080808083C
:100E3600080808080808080808080808080808082C
:100E4600080808080808080808080808080808081C
:100E5600080808080808080808080808080808080C
:100E660008080808080808080808080808080808FC
:100E760008080808080808080808080808080808EC
:100E860008080808080808080808080808080808DC
:0C0E9600080808080808080808080808F0
:00000001FF
